:020000002429B1
:10000800803120007F08FA00911D1F292400141A4E
:100018006C28AF2820003108BC211F292000310896
:1000280006221F29200031084F221F2920003108ED
:100038005E231F2920003108E1231F2920003108F1
:1000480055241F29200031085F241F29C5223E2876
:1000580022000E0C890C0139F8000130F835890BA3
:1000680032280E0E01397807F90079084028FC2259
:100078003E288C22F800780820005F2800304B28A2
:1000880001304B2802304B2803304B2807303221EF
:1000980071082000A5007008A4002408F80078085A
:1000A800B8002508F8007808B9001F2923305D2812
:1000B8003B30F8007808B8001F29310824241F298C
:1000C8002000310810241F2920003108FB231F2994
:1000D80020003008013A03190E28033A03191228A0
:1000E800013A03192A28073A03191628013A03196D
:1000F8003D28033A03193B28163A03194228013AC6
:1001080003194428033A03194628013A03194828D1
:10011800063A03194A28353A03195A28013A0319A5
:100128005C28613A03191E28013A03192228033A68
:1001380003192628013A03192C28133A03196828A9
:10014800013A03196128033A03196428A23A0319EA
:100158001A281F291F29240014082D39F8007808A7
:100168002000A1000D2924001108F80078082000BB
:10017800A000B601B701A201A3012308803AF80044
:1001880080307802031DCA280A3022020318EE289C
:1001980020002208303E8600870181010130A20735
:1001A8000030A33DC12824001108F80020003608BB
:1001B800303E86008701780881000130B60700309C
:1001C800B73D003037020A3003193602031CEE2807
:1001D800B601B7012400092924001108F80078089D
:1001E8002000A00024001418F62820003808072949
:1001F80024001108F80078082000A0002400141832
:1002080002292000390824009100161C1F29151600
:100218001F2920002108093A0319B728043A0319AD
:10022800F028253A03191F29013A0319D728053A56
:100238000319FC281F29200091117A08FF000900E2
:100248002529FB01B001B101B201B301B401B50127
:10025800B601B701B801B9012000862CF700F401F6
:10026800F501F601502921000C1423000C14612912
:1002780021008C1423008C14612921000C15230003
:100288000C15612921000C1623000C166129210088
:100298008E1523008E1561297708003A031937292E
:1002A800013A03193C29033A03194129013A031970
:1002B8004629043A03194B2961298F3021009E05EC
:1002C800FC309E059E177708F200F20DF20D1D080E
:1002D8007206833972069D001D14F60105307602F8
:1002E80003187F2900000130F2007208F607053074
:1002F8007602031C762921009D149D1881291C086B
:10030800F200F3017208F4007308F5000830F435C0
:10031800F50D890B8B291B08F200F3017208F40410
:100328007308F504A62923000C10B72923008C10A4
:10033800B72923000C11B72923000C12B729230071
:100348008E11B7297708003A03199729013A03193A
:100358009A29033A03199D29013A0319A029043A55
:100368000319A329B7297508F1007408F0000800DB
:10037800F10001307105F00021000C087006FE390B
:1003880070068C000310F10C71080139F000F00DB3
:100398000C087006FD3970068C000310F10C71080A
:1003A8000139F000F00DF00D0C087006FB397006ED
:1003B8008C000310F10C0C160310F10C71080139B4
:1003C800F000F00EF00D0C087006DF3970068C0096
:1003D8000310F10C71080139F000F00DF00DF00D6B
:1003E8000E087006F73970068E000310F10C7108BC
:1003F8000139F000F00EF00D0E087006DF397006B6
:100408008E000800F10001307105F00022000C0890
:100418007006FE3970068C000310F10C7108013962
:10042800F000F00D0C087006FD3970068C00031002
:10043800F10C71080139F000F00DF00D0C08700690
:10044800FB3970068C000310F10C0310F10C7108D5
:100458000139F000F00EF00D0C087006DF39700657
:100468008C000310F10C71080139F000F00DF00D4B
:10047800F00D0E087006F73970068E000310F10CA7
:1004880071080139F000F00EF00D0E087006DF3922
:1004980070068E000800F10001307105F00024009C
:1004A8000C087006FE3970068C000310F10C7108F8
:1004B8000139F000F00D0C087006FD3970068C004B
:1004C8000310F10C71080139F000F00DF00D0C0863
:1004D8007006FB3970068C000310F10C71080139A5
:1004E800F000F00DF00DF00D0C087006F7397006ED
:1004F8008C000310F10C71080139F000F00EF00DBA
:100508000C087006DF3970068C000310F10C080027
:10051800F20121000E0E890C0139F0007008F20476
:100528000310F20D0E0CF000F00C700C0139F10004
:100538007108F2040310F20D0C0E890C0139F00059
:100548007008F2040310F20D0C0E0139F000700867
:10055800F2040310F20D0C0C890C0139F00070083C
:10056800F2040310F20D0C0C0139F0007008F204CB
:100578000310F20D0C080139F0007008F20472083B
:100588000800F201003020008E1A0130F20003103A
:10059800F20D0E0CF000F00C700C0139F10071082E
:1005A800F2040310F20D0C0E890C0139F0007008EA
:1005B800F2040310F20D0C0E0139F0007008F20479
:1005C8000310F20D0C0C890C0139F0007008F204CC
:1005D8000310F20D0C0C0139F0007008F20403103E
:1005E800F20D0C080139F0007008F20472080800D6
:1005F800F20122000E0E890C0139F0007008F20495
:100608000310F20D0E0CF000F00C700C0139F10023
:100618007108F2040310F20D0310F20D0C0E0139EB
:10062800F0007008F2040310F20D0C0C890C01396B
:10063800F0007008F2040310F20D0C0C0139F00000
:100648007008F2040310F20D0C080139F00070086C
:10065800F204720808002000AA01AB012608230052
:10066800910008302000A736A60C890B372B2608E6
:10067800230092001513151400000000230014082D
:100688002000A800A9012808AA002908AB00083002
:10069800AA35AB0D890B4C2B230013082000A800AA
:1006A800A9012808AA042908AB042B08A7002A08CE
:1006B800A6000800F60020008C1A0800FF30F000A1
:1006C8000730F10038247608F400F5017408F000CA
:1006D8007508F100FF30F2000730F300C5237608F3
:1006E800F4007408FB002400951201309600403095
:1006F800970094017B3592003E3095000800230056
:100708008E018C01FF3021008C00FF308E0022000A
:100718008C018E0121000E148E1422000E108E10F2
:1007280021000E120E1122000E120E112100951337
:1007380024000C08C03920388C0021008C162200B7
:100748008C120800FF302000A6000730A7002F23D6
:1007580020002708AF002608AE00FF302E05AC00A9
:1007680000302F05AD002C0A2D04031DC02B2130AD
:10077800AC002C08FB0008002E08AC002C08FB007D
:10078800080023001513720891000830F336F20CA4
:10079800890BCA2B72089200151295161515700848
:1007A80093000830F136F00C890BD62B70089400B2
:1007B80095126924230015110800F1007108013908
:1007C800F000F00E22000E087006EF3970068E0059
:1007D8000310F10C71080139F000F00DF00D0E084E
:1007E8007006FB3970068E000310F10C0800F0004B
:1007F800072C2C00930121008E1608002C0096016E
:1008080021008E1508007008013A0319FD2B033AE0
:100818000319022C0F2C0800F000023020009C0065
:100828002C009601FF3020009B0070082C009500DA
:100838009401C030960020001C1521008E1108007C
:10084800F000023020009C002C009301FF302000B3
:100858009B0070082C0092009101C030930020008A
:100868001C1521008E120800700823009100083022
:10087800F136F00C890B3C2C7008920015131516F4
:10088800151569242300151108000130240096006D
:1008980040309700803094007B3592003E309500C0
:1008A8000800F000701C5A2C22000E16F01C0800DC
:1008B80022000E150800F000701C642C22000E1295
:1008C800F01C080022000E11080055302300960085
:1008D800AA30960095140000000008007830210026
:1008E8009904033099041A1A0800772C20009111F2
:1008F800210091150B178B1708008323A623492481
:0A0908007A24080072248124882C50
:020000040001F9
:04000E00C4FFFFDF4D
:00000001FF
